{
  "contractName": "Dex",
  "abi": [
    {
      "inputs": [
        {
          "internalType": "address[]",
          "name": "_tokenAddr",
          "type": "address[]"
        }
      ],
      "stateMutability": "nonpayable",
      "type": "constructor"
    },
    {
      "anonymous": false,
      "inputs": [
        {
          "indexed": false,
          "internalType": "address",
          "name": "account",
          "type": "address"
        },
        {
          "indexed": false,
          "internalType": "address",
          "name": "_tokenAddr",
          "type": "address"
        },
        {
          "indexed": false,
          "internalType": "uint256",
          "name": "_cost",
          "type": "uint256"
        },
        {
          "indexed": false,
          "internalType": "uint256",
          "name": "_amount",
          "type": "uint256"
        }
      ],
      "name": "buy",
      "type": "event"
    },
    {
      "anonymous": false,
      "inputs": [
        {
          "indexed": false,
          "internalType": "address",
          "name": "account",
          "type": "address"
        },
        {
          "indexed": false,
          "internalType": "address",
          "name": "_tokenAddr",
          "type": "address"
        },
        {
          "indexed": false,
          "internalType": "uint256",
          "name": "_cost",
          "type": "uint256"
        },
        {
          "indexed": false,
          "internalType": "uint256",
          "name": "_amount",
          "type": "uint256"
        }
      ],
      "name": "sell",
      "type": "event"
    },
    {
      "inputs": [
        {
          "internalType": "address",
          "name": "",
          "type": "address"
        }
      ],
      "name": "supportedTokenAddr",
      "outputs": [
        {
          "internalType": "bool",
          "name": "",
          "type": "bool"
        }
      ],
      "stateMutability": "view",
      "type": "function",
      "constant": true
    },
    {
      "inputs": [
        {
          "internalType": "address",
          "name": "_tokenAddr",
          "type": "address"
        },
        {
          "internalType": "uint256",
          "name": "_cost",
          "type": "uint256"
        },
        {
          "internalType": "uint256",
          "name": "_amount",
          "type": "uint256"
        }
      ],
      "name": "buyToken",
      "outputs": [],
      "stateMutability": "payable",
      "type": "function",
      "payable": true
    },
    {
      "inputs": [
        {
          "internalType": "address",
          "name": "_tokenAddr",
          "type": "address"
        },
        {
          "internalType": "uint256",
          "name": "_cost",
          "type": "uint256"
        },
        {
          "internalType": "uint256",
          "name": "_amount",
          "type": "uint256"
        }
      ],
      "name": "sellToken",
      "outputs": [],
      "stateMutability": "nonpayable",
      "type": "function"
    }
  ],
  "bytecode": "0x60806040523480156200001157600080fd5b5060405162000f5c38038062000f5c8339818101604052810190620000379190620001b3565b60005b8151811015620000f257600160008084848151811062000083577f4e487b7100000000000000000000000000000000000000000000000000000000600052603260045260246000fd5b602002602001015173ffffffffffffffffffffffffffffffffffffffff1673ffffffffffffffffffffffffffffffffffffffff16815260200190815260200160002060006101000a81548160ff0219169083151502179055508080620000e99062000299565b9150506200003a565b50506200035f565b6000620001116200010b846200022c565b620001f8565b905080838252602082019050828560208602820111156200013157600080fd5b60005b858110156200016557816200014a88826200016f565b84526020840193506020830192505060018101905062000134565b5050509392505050565b600081519050620001808162000345565b92915050565b600082601f8301126200019857600080fd5b8151620001aa848260208601620000fa565b91505092915050565b600060208284031215620001c657600080fd5b600082015167ffffffffffffffff811115620001e157600080fd5b620001ef8482850162000186565b91505092915050565b6000604051905081810181811067ffffffffffffffff8211171562000222576200022162000316565b5b8060405250919050565b600067ffffffffffffffff8211156200024a576200024962000316565b5b602082029050602081019050919050565b600062000268826200026f565b9050919050565b600073ffffffffffffffffffffffffffffffffffffffff82169050919050565b6000819050919050565b6000620002a6826200028f565b91507fffffffffffffffffffffffffffffffffffffffffffffffffffffffffffffffff821415620002dc57620002db620002e7565b5b600182019050919050565b7f4e487b7100000000000000000000000000000000000000000000000000000000600052601160045260246000fd5b7f4e487b7100000000000000000000000000000000000000000000000000000000600052604160045260246000fd5b62000350816200025b565b81146200035c57600080fd5b50565b610bed806200036f6000396000f3fe6080604052600436106100345760003560e01c8063096db4d6146100395780633e11741f14610076578063e671499b1461009f575b600080fd5b34801561004557600080fd5b50610060600480360381019061005b91906106cd565b6100bb565b60405161006d9190610a33565b60405180910390f35b34801561008257600080fd5b5061009d600480360381019061009891906106f6565b6100db565b005b6100b960048036038101906100b491906106f6565b610402565b005b60006020528060005260406000206000915054906101000a900460ff1681565b82600115156000808373ffffffffffffffffffffffffffffffffffffffff1673ffffffffffffffffffffffffffffffffffffffff16815260200190815260200160002060009054906101000a900460ff1615151461016e576040517f08c379a000000000000000000000000000000000000000000000000000000000815260040161016590610a6e565b60405180910390fd5b6000849050838173ffffffffffffffffffffffffffffffffffffffff166370a08231336040518263ffffffff1660e01b81526004016101ad9190610973565b60206040518083038186803b1580156101c557600080fd5b505afa1580156101d9573d6000803e3d6000fd5b505050506040513d601f19601f820116820180604052508101906101fd919061076e565b101561023e576040517f08c379a000000000000000000000000000000000000000000000000000000000815260040161023590610a8e565b60405180910390fd5b82471015610281576040517f08c379a000000000000000000000000000000000000000000000000000000000815260040161027890610a4e565b60405180910390fd5b8073ffffffffffffffffffffffffffffffffffffffff166323b872dd3330876040518463ffffffff1660e01b81526004016102be9392919061098e565b602060405180830381600087803b1580156102d857600080fd5b505af11580156102ec573d6000803e3d6000fd5b505050506040513d601f19601f820116820180604052508101906103109190610745565b5060003373ffffffffffffffffffffffffffffffffffffffff16846040516103379061095e565b60006040518083038185875af1925050503d8060008114610374576040519150601f19603f3d011682016040523d82523d6000602084013e610379565b606091505b50509050806103bd576040517f08c379a00000000000000000000000000000000000000000000000000000000081526004016103b490610ace565b60405180910390fd5b7f31de7d15e9e6c3b6f319c842341b735c0f9d7a5d06944314495f952400bd74c0338787876040516103f294939291906109c5565b60405180910390a1505050505050565b82600115156000808373ffffffffffffffffffffffffffffffffffffffff1673ffffffffffffffffffffffffffffffffffffffff16815260200190815260200160002060009054906101000a900460ff16151514610495576040517f08c379a000000000000000000000000000000000000000000000000000000000815260040161048c90610a6e565b60405180910390fd5b60008490508334146104dc576040517f08c379a00000000000000000000000000000000000000000000000000000000081526004016104d390610aee565b60405180910390fd5b828173ffffffffffffffffffffffffffffffffffffffff166370a08231306040518263ffffffff1660e01b81526004016105169190610973565b60206040518083038186803b15801561052e57600080fd5b505afa158015610542573d6000803e3d6000fd5b505050506040513d601f19601f82011682018060405250810190610566919061076e565b10156105a7576040517f08c379a000000000000000000000000000000000000000000000000000000000815260040161059e90610aae565b60405180910390fd5b8073ffffffffffffffffffffffffffffffffffffffff1663a9059cbb33856040518363ffffffff1660e01b81526004016105e2929190610a0a565b602060405180830381600087803b1580156105fc57600080fd5b505af1158015610610573d6000803e3d6000fd5b505050506040513d601f19601f820116820180604052508101906106349190610745565b507fa9d424e2b661a4cf6090e4849fd2d81c17106afa4b26188dcc493a69ea4c2b5e3386868660405161066a94939291906109c5565b60405180910390a15050505050565b60008135905061068881610b72565b92915050565b60008151905061069d81610b89565b92915050565b6000813590506106b281610ba0565b92915050565b6000815190506106c781610ba0565b92915050565b6000602082840312156106df57600080fd5b60006106ed84828501610679565b91505092915050565b60008060006060848603121561070b57600080fd5b600061071986828701610679565b935050602061072a868287016106a3565b925050604061073b868287016106a3565b9150509250925092565b60006020828403121561075757600080fd5b60006107658482850161068e565b91505092915050565b60006020828403121561078057600080fd5b600061078e848285016106b8565b91505092915050565b6107a081610b2a565b82525050565b6107af81610b3c565b82525050565b60006107c2601e83610b19565b91507f44657820646f6573206e6f74206861766520656e6f7567682066756e647300006000830152602082019050919050565b6000610802601b83610b19565b91507f5468697320746f6b656e206973206e6f7420737570706f7274656400000000006000830152602082019050919050565b6000610842601a83610b19565b91507f496e73756666696369656e7420746f6b656e2062616c616e63650000000000006000830152602082019050919050565b6000610882600083610b0e565b9150600082019050919050565b600061089c600e83610b19565b91507f546f6b656e20736f6c64206f75740000000000000000000000000000000000006000830152602082019050919050565b60006108dc601383610b19565b91507f455448207472616e73666572206661696c6564000000000000000000000000006000830152602082019050919050565b600061091c601183610b19565b91507f496e73756666696369656e742066756e640000000000000000000000000000006000830152602082019050919050565b61095881610b68565b82525050565b600061096982610875565b9150819050919050565b60006020820190506109886000830184610797565b92915050565b60006060820190506109a36000830186610797565b6109b06020830185610797565b6109bd604083018461094f565b949350505050565b60006080820190506109da6000830187610797565b6109e76020830186610797565b6109f4604083018561094f565b610a01606083018461094f565b95945050505050565b6000604082019050610a1f6000830185610797565b610a2c602083018461094f565b9392505050565b6000602082019050610a4860008301846107a6565b92915050565b60006020820190508181036000830152610a67816107b5565b9050919050565b60006020820190508181036000830152610a87816107f5565b9050919050565b60006020820190508181036000830152610aa781610835565b9050919050565b60006020820190508181036000830152610ac78161088f565b9050919050565b60006020820190508181036000830152610ae7816108cf565b9050919050565b60006020820190508181036000830152610b078161090f565b9050919050565b600081905092915050565b600082825260208201905092915050565b6000610b3582610b48565b9050919050565b60008115159050919050565b600073ffffffffffffffffffffffffffffffffffffffff82169050919050565b6000819050919050565b610b7b81610b2a565b8114610b8657600080fd5b50565b610b9281610b3c565b8114610b9d57600080fd5b50565b610ba981610b68565b8114610bb457600080fd5b5056fea2646970667358221220da8002a9f2f75a733373821a9b82a838426f93d7e215507cafe865c32d4353f664736f6c63430008000033",
  "immutableReferences": {},
  "source": "// SPDX-License-Identifier: MIT\npragma solidity ^0.8.0;\n\nimport \"@openzeppelin/contracts/token/ERC20/ERC20.sol\";\n\ncontract Dex {\n\n  event buy(address account, address _tokenAddr, uint256 _cost, uint256 _amount);\n  event sell(address account, address _tokenAddr, uint256 _cost, uint256 _amount);\n\n  mapping(address => bool) public supportedTokenAddr;\n\n  modifier supportsToken(address _tokenAddr){\n    require(supportedTokenAddr[_tokenAddr] == true, \"This token is not supported\");\n    _;\n  }\n\n  constructor(address[] memory _tokenAddr){\n    for(uint i=0; i < _tokenAddr.length; i++){\n      supportedTokenAddr[_tokenAddr[i]] = true;\n    }\n  }\n\n  function buyToken(address _tokenAddr, uint256 _cost, uint256 _amount) external payable supportsToken(_tokenAddr){\n    ERC20 token = ERC20(_tokenAddr);\n    require(msg.value == _cost, \"Insufficient fund\");\n    require(token.balanceOf(address(this)) >= _amount, \"Token sold out\");\n    token.transfer(msg.sender, _amount);\n    emit buy(msg.sender, _tokenAddr, _cost, _amount);\n  }\n\n  function sellToken(address _tokenAddr, uint256 _cost, uint256 _amount) external supportsToken(_tokenAddr) {\n    ERC20 token = ERC20(_tokenAddr);\n    require(token.balanceOf(msg.sender) >= _cost, \"Insufficient token balance\");\n    require(address(this).balance >= _amount, \"Dex does not have enough funds\");\n    token.transferFrom(msg.sender, address(this), _cost);\n    (bool success, ) = payable(msg.sender).call{value: _amount}(\"\");\n    require(success, \"ETH transfer failed\");\n    emit sell(msg.sender, _tokenAddr, _cost, _amount);\n  }\n\n}",
  "sourcePath": "C:\\Users\\infoc\\Dropbox\\htdocs\\web3\\demodex\\contracts\\Dex.sol",
  "compiler": {
    "name": "solc",
    "version": "0.8.0+commit.c7dfd78e.Emscripten.clang"
  },
  "schemaVersion": "3.4.5",
  "updatedAt": "2022-03-15T17:40:28.366Z",
  "networkType": "ethereum",
  "devdoc": {
    "kind": "dev",
    "methods": {},
    "version": 1
  },
  "userdoc": {
    "kind": "user",
    "methods": {},
    "version": 1
  }
}